{
  "_format": "hh-sol-artifact-1",
  "contractName": "RegistrationContract",
  "sourceName": "contracts/RegistrationContract.sol",
  "abi": [
    {
      "anonymous": false,
      "inputs": [
        {
          "indexed": true,
          "internalType": "address",
          "name": "userAddress",
          "type": "address"
        },
        {
          "indexed": false,
          "internalType": "string",
          "name": "name",
          "type": "string"
        },
        {
          "indexed": false,
          "internalType": "string",
          "name": "cnic",
          "type": "string"
        },
        {
          "indexed": false,
          "internalType": "string",
          "name": "phoneNumber",
          "type": "string"
        },
        {
          "indexed": false,
          "internalType": "string",
          "name": "email",
          "type": "string"
        },
        {
          "indexed": false,
          "internalType": "enum RegistrationContract.UserRole",
          "name": "role",
          "type": "uint8"
        },
        {
          "indexed": false,
          "internalType": "string",
          "name": "estateName",
          "type": "string"
        },
        {
          "indexed": false,
          "internalType": "string",
          "name": "cnicImage",
          "type": "string"
        },
        {
          "indexed": false,
          "internalType": "string",
          "name": "displayPicture",
          "type": "string"
        }
      ],
      "name": "UserRegistered",
      "type": "event"
    },
    {
      "inputs": [],
      "name": "addressCount",
      "outputs": [
        {
          "internalType": "uint256",
          "name": "",
          "type": "uint256"
        }
      ],
      "stateMutability": "view",
      "type": "function"
    },
    {
      "inputs": [
        {
          "internalType": "uint256",
          "name": "",
          "type": "uint256"
        }
      ],
      "name": "addresses",
      "outputs": [
        {
          "internalType": "address",
          "name": "",
          "type": "address"
        }
      ],
      "stateMutability": "view",
      "type": "function"
    },
    {
      "inputs": [
        {
          "internalType": "string",
          "name": "",
          "type": "string"
        }
      ],
      "name": "cnicToAddress",
      "outputs": [
        {
          "internalType": "address",
          "name": "",
          "type": "address"
        }
      ],
      "stateMutability": "view",
      "type": "function"
    },
    {
      "inputs": [
        {
          "internalType": "string",
          "name": "",
          "type": "string"
        }
      ],
      "name": "emailToAddress",
      "outputs": [
        {
          "internalType": "address",
          "name": "",
          "type": "address"
        }
      ],
      "stateMutability": "view",
      "type": "function"
    },
    {
      "inputs": [],
      "name": "getAllStateAgents",
      "outputs": [
        {
          "components": [
            {
              "internalType": "string",
              "name": "name",
              "type": "string"
            },
            {
              "internalType": "string",
              "name": "cnic",
              "type": "string"
            },
            {
              "internalType": "string",
              "name": "phoneNumber",
              "type": "string"
            },
            {
              "internalType": "string",
              "name": "email",
              "type": "string"
            },
            {
              "internalType": "enum RegistrationContract.UserRole",
              "name": "role",
              "type": "uint8"
            },
            {
              "internalType": "string",
              "name": "estateName",
              "type": "string"
            },
            {
              "internalType": "string",
              "name": "cnicImage",
              "type": "string"
            },
            {
              "internalType": "string",
              "name": "displayPicture",
              "type": "string"
            }
          ],
          "internalType": "struct RegistrationContract.User[]",
          "name": "",
          "type": "tuple[]"
        }
      ],
      "stateMutability": "view",
      "type": "function"
    },
    {
      "inputs": [
        {
          "internalType": "string",
          "name": "_cnic",
          "type": "string"
        }
      ],
      "name": "getUserDetailsByCNIC",
      "outputs": [
        {
          "internalType": "string",
          "name": "",
          "type": "string"
        },
        {
          "internalType": "string",
          "name": "",
          "type": "string"
        },
        {
          "internalType": "enum RegistrationContract.UserRole",
          "name": "",
          "type": "uint8"
        },
        {
          "internalType": "string",
          "name": "",
          "type": "string"
        },
        {
          "internalType": "string",
          "name": "",
          "type": "string"
        },
        {
          "internalType": "string",
          "name": "",
          "type": "string"
        }
      ],
      "stateMutability": "view",
      "type": "function"
    },
    {
      "inputs": [
        {
          "internalType": "string",
          "name": "",
          "type": "string"
        }
      ],
      "name": "phoneNumberToAddress",
      "outputs": [
        {
          "internalType": "address",
          "name": "",
          "type": "address"
        }
      ],
      "stateMutability": "view",
      "type": "function"
    },
    {
      "inputs": [
        {
          "internalType": "string",
          "name": "_name",
          "type": "string"
        },
        {
          "internalType": "string",
          "name": "_cnic",
          "type": "string"
        },
        {
          "internalType": "string",
          "name": "_phoneNumber",
          "type": "string"
        },
        {
          "internalType": "string",
          "name": "_email",
          "type": "string"
        },
        {
          "internalType": "enum RegistrationContract.UserRole",
          "name": "_role",
          "type": "uint8"
        },
        {
          "internalType": "string",
          "name": "_estateName",
          "type": "string"
        },
        {
          "internalType": "string",
          "name": "cnicImage",
          "type": "string"
        },
        {
          "internalType": "string",
          "name": "displayPicture",
          "type": "string"
        }
      ],
      "name": "registerUser",
      "outputs": [],
      "stateMutability": "nonpayable",
      "type": "function"
    },
    {
      "inputs": [
        {
          "internalType": "address",
          "name": "",
          "type": "address"
        }
      ],
      "name": "users",
      "outputs": [
        {
          "internalType": "string",
          "name": "name",
          "type": "string"
        },
        {
          "internalType": "string",
          "name": "cnic",
          "type": "string"
        },
        {
          "internalType": "string",
          "name": "phoneNumber",
          "type": "string"
        },
        {
          "internalType": "string",
          "name": "email",
          "type": "string"
        },
        {
          "internalType": "enum RegistrationContract.UserRole",
          "name": "role",
          "type": "uint8"
        },
        {
          "internalType": "string",
          "name": "estateName",
          "type": "string"
        },
        {
          "internalType": "string",
          "name": "cnicImage",
          "type": "string"
        },
        {
          "internalType": "string",
          "name": "displayPicture",
          "type": "string"
        }
      ],
      "stateMutability": "view",
      "type": "function"
    }
  ],
  "bytecode": "0x608060405234801561001057600080fd5b50611395806100206000396000f3fe608060405234801561001057600080fd5b506004361061004c5760003560e01c80633e4ee9531461005157806363d915f0146100835780637fc144131461009f578063a87430ba146100cf575b600080fd5b61006b60048036038101906100669190610c62565b610102565b60405161007a93929190610fd4565b60405180910390f35b61009d60048036038101906100989190610ca3565b610463565b005b6100b960048036038101906100b49190610c62565b6108e6565b6040516100c69190610fb9565b60405180910390f35b6100e960048036038101906100e49190610c39565b61092f565b6040516100f99493929190611019565b60405180910390f35b606060006060600080856040516101199190610fa2565b908152602001604051809103902060009054906101000a900473ffffffffffffffffffffffffffffffffffffffff169050600073ffffffffffffffffffffffffffffffffffffffff168173ffffffffffffffffffffffffffffffffffffffff1614156101ba576040517f08c379a00000000000000000000000000000000000000000000000000000000081526004016101b1906110f3565b60405180910390fd5b6000600160008373ffffffffffffffffffffffffffffffffffffffff1673ffffffffffffffffffffffffffffffffffffffff16815260200190815260200160002060405180608001604052908160008201805461021690611254565b80601f016020809104026020016040519081016040528092919081815260200182805461024290611254565b801561028f5780601f106102645761010080835404028352916020019161028f565b820191906000526020600020905b81548152906001019060200180831161027257829003601f168201915b505050505081526020016001820180546102a890611254565b80601f01602080910402602001604051908101604052809291908181526020018280546102d490611254565b80156103215780601f106102f657610100808354040283529160200191610321565b820191906000526020600020905b81548152906001019060200180831161030457829003601f168201915b505050505081526020016002820160009054906101000a900460ff166002811115610375577f4e487b7100000000000000000000000000000000000000000000000000000000600052602160045260246000fd5b60028111156103ad577f4e487b7100000000000000000000000000000000000000000000000000000000600052602160045260246000fd5b81526020016003820180546103c190611254565b80601f01602080910402602001604051908101604052809291908181526020018280546103ed90611254565b801561043a5780601f1061040f5761010080835404028352916020019161043a565b820191906000526020600020905b81548152906001019060200180831161041d57829003601f168201915b505050505081525050905080600001518160400151826060015194509450945050509193909250565b60008451116104a7576040517f08c379a000000000000000000000000000000000000000000000000000000000815260040161049e90611073565b60405180910390fd5b60008351116104eb576040517f08c379a00000000000000000000000000000000000000000000000000000000081526004016104e2906110d3565b60405180910390fd5b6000600160003373ffffffffffffffffffffffffffffffffffffffff1673ffffffffffffffffffffffffffffffffffffffff168152602001908152602001600020600001805461053a90611254565b90501461057c576040517f08c379a0000000000000000000000000000000000000000000000000000000008152600401610573906110b3565b60405180910390fd5b600073ffffffffffffffffffffffffffffffffffffffff166000846040516105a49190610fa2565b908152602001604051809103902060009054906101000a900473ffffffffffffffffffffffffffffffffffffffff1673ffffffffffffffffffffffffffffffffffffffff1614610629576040517f08c379a000000000000000000000000000000000000000000000000000000000815260040161062090611113565b60405180910390fd5b60006002811115610663577f4e487b7100000000000000000000000000000000000000000000000000000000600052602160045260246000fd5b82600281111561069c577f4e487b7100000000000000000000000000000000000000000000000000000000600052602160045260246000fd5b14156106e75760008151116106e6576040517f08c379a00000000000000000000000000000000000000000000000000000000081526004016106dd90611093565b60405180910390fd5b5b6040518060800160405280858152602001848152602001836002811115610737577f4e487b7100000000000000000000000000000000000000000000000000000000600052602160045260246000fd5b815260200182815250600160003373ffffffffffffffffffffffffffffffffffffffff1673ffffffffffffffffffffffffffffffffffffffff168152602001908152602001600020600082015181600001908051906020019061079b929190610b04565b5060208201518160010190805190602001906107b8929190610b04565b5060408201518160020160006101000a81548160ff0219169083600281111561080a577f4e487b7100000000000000000000000000000000000000000000000000000000600052602160045260246000fd5b0217905550606082015181600301908051906020019061082b929190610b04565b50905050336000846040516108409190610fa2565b908152602001604051809103902060006101000a81548173ffffffffffffffffffffffffffffffffffffffff021916908373ffffffffffffffffffffffffffffffffffffffff1602179055503373ffffffffffffffffffffffffffffffffffffffff167fd4821fc01d85179f220c6bba422af5d17cd0150bcbfb95af9e5f06981962392e858585856040516108d89493929190611019565b60405180910390a250505050565b6000818051602081018201805184825260208301602085012081835280955050505050506000915054906101000a900473ffffffffffffffffffffffffffffffffffffffff1681565b600160205280600052604060002060009150905080600001805461095290611254565b80601f016020809104026020016040519081016040528092919081815260200182805461097e90611254565b80156109cb5780601f106109a0576101008083540402835291602001916109cb565b820191906000526020600020905b8154815290600101906020018083116109ae57829003601f168201915b5050505050908060010180546109e090611254565b80601f0160208091040260200160405190810160405280929190818152602001828054610a0c90611254565b8015610a595780601f10610a2e57610100808354040283529160200191610a59565b820191906000526020600020905b815481529060010190602001808311610a3c57829003601f168201915b5050505050908060020160009054906101000a900460ff1690806003018054610a8190611254565b80601f0160208091040260200160405190810160405280929190818152602001828054610aad90611254565b8015610afa5780601f10610acf57610100808354040283529160200191610afa565b820191906000526020600020905b815481529060010190602001808311610add57829003601f168201915b5050505050905084565b828054610b1090611254565b90600052602060002090601f016020900481019282610b325760008555610b79565b82601f10610b4b57805160ff1916838001178555610b79565b82800160010185558215610b79579182015b82811115610b78578251825591602001919060010190610b5d565b5b509050610b869190610b8a565b5090565b5b80821115610ba3576000816000905550600101610b8b565b5090565b6000610bba610bb584611164565b611133565b905082815260208101848484011115610bd257600080fd5b610bdd848285611212565b509392505050565b600081359050610bf481611338565b92915050565b600081359050610c098161134f565b92915050565b600082601f830112610c2057600080fd5b8135610c30848260208601610ba7565b91505092915050565b600060208284031215610c4b57600080fd5b6000610c5984828501610be5565b91505092915050565b600060208284031215610c7457600080fd5b600082013567ffffffffffffffff811115610c8e57600080fd5b610c9a84828501610c0f565b91505092915050565b60008060008060808587031215610cb957600080fd5b600085013567ffffffffffffffff811115610cd357600080fd5b610cdf87828801610c0f565b945050602085013567ffffffffffffffff811115610cfc57600080fd5b610d0887828801610c0f565b9350506040610d1987828801610bfa565b925050606085013567ffffffffffffffff811115610d3657600080fd5b610d4287828801610c0f565b91505092959194509250565b610d57816111bb565b82525050565b610d6681611200565b82525050565b6000610d7782611194565b610d81818561119f565b9350610d91818560208601611221565b610d9a81611313565b840191505092915050565b6000610db082611194565b610dba81856111b0565b9350610dca818560208601611221565b80840191505092915050565b6000610de360148361119f565b91507f4e616d652063616e6e6f7420626520656d7074790000000000000000000000006000830152602082019050919050565b6000610e2360288361119f565b91507f457374617465206e616d6520697320726571756972656420666f72205374617460008301527f65204167656e74730000000000000000000000000000000000000000000000006020830152604082019050919050565b6000610e8960178361119f565b91507f5573657220616c726561647920726567697374657265640000000000000000006000830152602082019050919050565b6000610ec960148361119f565b91507f434e49432063616e6e6f7420626520656d7074790000000000000000000000006000830152602082019050919050565b6000610f0960228361119f565b91507f55736572206e6f7420666f756e6420776974682074686520676976656e20434e60008301527f49430000000000000000000000000000000000000000000000000000000000006020830152604082019050919050565b6000610f6f60178361119f565b91507f434e494320616c726561647920726567697374657265640000000000000000006000830152602082019050919050565b6000610fae8284610da5565b915081905092915050565b6000602082019050610fce6000830184610d4e565b92915050565b60006060820190508181036000830152610fee8186610d6c565b9050610ffd6020830185610d5d565b818103604083015261100f8184610d6c565b9050949350505050565b600060808201905081810360008301526110338187610d6c565b905081810360208301526110478186610d6c565b90506110566040830185610d5d565b81810360608301526110688184610d6c565b905095945050505050565b6000602082019050818103600083015261108c81610dd6565b9050919050565b600060208201905081810360008301526110ac81610e16565b9050919050565b600060208201905081810360008301526110cc81610e7c565b9050919050565b600060208201905081810360008301526110ec81610ebc565b9050919050565b6000602082019050818103600083015261110c81610efc565b9050919050565b6000602082019050818103600083015261112c81610f62565b9050919050565b6000604051905081810181811067ffffffffffffffff8211171561115a576111596112e4565b5b8060405250919050565b600067ffffffffffffffff82111561117f5761117e6112e4565b5b601f19601f8301169050602081019050919050565b600081519050919050565b600082825260208201905092915050565b600081905092915050565b60006111c6826111e0565b9050919050565b60008190506111db82611324565b919050565b600073ffffffffffffffffffffffffffffffffffffffff82169050919050565b600061120b826111cd565b9050919050565b82818337600083830152505050565b60005b8381101561123f578082015181840152602081019050611224565b8381111561124e576000848401525b50505050565b6000600282049050600182168061126c57607f821691505b602082108114156112805761127f6112b5565b5b50919050565b7f4e487b7100000000000000000000000000000000000000000000000000000000600052602160045260246000fd5b7f4e487b7100000000000000000000000000000000000000000000000000000000600052602260045260246000fd5b7f4e487b7100000000000000000000000000000000000000000000000000000000600052604160045260246000fd5b6000601f19601f8301169050919050565b6003811061133557611334611286565b5b50565b611341816111bb565b811461134c57600080fd5b50565b6003811061135c57600080fd5b5056fea264697066735822122057d11b8b6ec11bd5de8b559e7d9e6bc3dcfe2318db13f8f8ed31c4cce487014b64736f6c63430008000033",
  "linkReferences": {},
  "deployedLinkReferences": {}
}