{
  "_format": "hh-sol-artifact-1",
  "contractName": "PropertyListing",
  "sourceName": "contracts/PropertyListing.sol",
  "abi": [
    {
      "inputs": [
        {
          "internalType": "address",
          "name": "_registrationContract",
          "type": "address"
        }
      ],
      "stateMutability": "nonpayable",
      "type": "constructor"
    },
    {
      "anonymous": false,
      "inputs": [
        {
          "indexed": true,
          "internalType": "uint16",
          "name": "propertyId",
          "type": "uint16"
        },
        {
          "indexed": false,
          "internalType": "string",
          "name": "propertyAddress",
          "type": "string"
        },
        {
          "indexed": false,
          "internalType": "string",
          "name": "cityArea",
          "type": "string"
        },
        {
          "indexed": false,
          "internalType": "uint8",
          "name": "floor",
          "type": "uint8"
        },
        {
          "indexed": false,
          "internalType": "address",
          "name": "ownerWallet",
          "type": "address"
        },
        {
          "indexed": false,
          "internalType": "string",
          "name": "description",
          "type": "string"
        },
        {
          "indexed": false,
          "internalType": "address",
          "name": "stateAgent",
          "type": "address"
        },
        {
          "indexed": false,
          "internalType": "string[]",
          "name": "imageLinks",
          "type": "string[]"
        },
        {
          "indexed": false,
          "internalType": "string",
          "name": "propertyType",
          "type": "string"
        },
        {
          "indexed": false,
          "internalType": "uint32",
          "name": "listingDate",
          "type": "uint32"
        }
      ],
      "name": "PropertyListed",
      "type": "event"
    },
    {
      "anonymous": false,
      "inputs": [
        {
          "indexed": true,
          "internalType": "uint16",
          "name": "propertyId",
          "type": "uint16"
        },
        {
          "indexed": false,
          "internalType": "enum PropertyListing.PropertyStatus",
          "name": "newStatus",
          "type": "uint8"
        }
      ],
      "name": "PropertyStatusChanged",
      "type": "event"
    },
    {
      "inputs": [
        {
          "internalType": "uint16",
          "name": "_propertyId",
          "type": "uint16"
        }
      ],
      "name": "approveDelisting",
      "outputs": [],
      "stateMutability": "nonpayable",
      "type": "function"
    },
    {
      "inputs": [
        {
          "internalType": "uint16",
          "name": "_propertyId",
          "type": "uint16"
        }
      ],
      "name": "approveStatusToListing",
      "outputs": [],
      "stateMutability": "nonpayable",
      "type": "function"
    },
    {
      "inputs": [
        {
          "internalType": "uint16",
          "name": "_propertyId",
          "type": "uint16"
        }
      ],
      "name": "delistProperty",
      "outputs": [],
      "stateMutability": "nonpayable",
      "type": "function"
    },
    {
      "inputs": [],
      "name": "getAllProperties",
      "outputs": [
        {
          "components": [
            {
              "internalType": "uint16",
              "name": "propertyId",
              "type": "uint16"
            },
            {
              "internalType": "string",
              "name": "propertyAddress",
              "type": "string"
            },
            {
              "internalType": "string",
              "name": "cityArea",
              "type": "string"
            },
            {
              "internalType": "uint8",
              "name": "floor",
              "type": "uint8"
            },
            {
              "internalType": "address",
              "name": "ownerWallet",
              "type": "address"
            },
            {
              "internalType": "address",
              "name": "stateAgent",
              "type": "address"
            },
            {
              "internalType": "enum PropertyListing.PropertyStatus",
              "name": "status",
              "type": "uint8"
            },
            {
              "internalType": "bool",
              "name": "delistApproved",
              "type": "bool"
            },
            {
              "internalType": "string[]",
              "name": "imageLinks",
              "type": "string[]"
            },
            {
              "internalType": "string",
              "name": "description",
              "type": "string"
            },
            {
              "internalType": "string",
              "name": "propertyType",
              "type": "string"
            },
            {
              "internalType": "uint32",
              "name": "listingDate",
              "type": "uint32"
            }
          ],
          "internalType": "struct PropertyListing.Property[]",
          "name": "",
          "type": "tuple[]"
        }
      ],
      "stateMutability": "view",
      "type": "function"
    },
    {
      "inputs": [
        {
          "internalType": "uint16",
          "name": "_propertyId",
          "type": "uint16"
        }
      ],
      "name": "getPropertyDetails",
      "outputs": [
        {
          "internalType": "string",
          "name": "propertyAddress",
          "type": "string"
        },
        {
          "internalType": "string",
          "name": "cityArea",
          "type": "string"
        },
        {
          "internalType": "uint8",
          "name": "floor",
          "type": "uint8"
        },
        {
          "internalType": "address",
          "name": "ownerWallet",
          "type": "address"
        },
        {
          "internalType": "address",
          "name": "stateAgent",
          "type": "address"
        },
        {
          "internalType": "enum PropertyListing.PropertyStatus",
          "name": "status",
          "type": "uint8"
        },
        {
          "internalType": "bool",
          "name": "delistApproved",
          "type": "bool"
        },
        {
          "internalType": "string[]",
          "name": "imageLinks",
          "type": "string[]"
        },
        {
          "internalType": "string",
          "name": "description",
          "type": "string"
        },
        {
          "internalType": "string",
          "name": "propertyType",
          "type": "string"
        }
      ],
      "stateMutability": "view",
      "type": "function"
    },
    {
      "inputs": [
        {
          "internalType": "uint16",
          "name": "_propertyId",
          "type": "uint16"
        }
      ],
      "name": "getStateAgentForProperty",
      "outputs": [
        {
          "internalType": "address",
          "name": "",
          "type": "address"
        }
      ],
      "stateMutability": "view",
      "type": "function"
    },
    {
      "inputs": [
        {
          "internalType": "string",
          "name": "_propertyAddress",
          "type": "string"
        },
        {
          "internalType": "string",
          "name": "_cityArea",
          "type": "string"
        },
        {
          "internalType": "uint8",
          "name": "_floor",
          "type": "uint8"
        },
        {
          "internalType": "address",
          "name": "_ownerWallet",
          "type": "address"
        },
        {
          "internalType": "string",
          "name": "_description",
          "type": "string"
        },
        {
          "internalType": "string[]",
          "name": "_imageLinks",
          "type": "string[]"
        },
        {
          "internalType": "string",
          "name": "_propertyType",
          "type": "string"
        }
      ],
      "name": "listProperty",
      "outputs": [],
      "stateMutability": "nonpayable",
      "type": "function"
    },
    {
      "inputs": [
        {
          "internalType": "uint16",
          "name": "_propertyId",
          "type": "uint16"
        },
        {
          "internalType": "address",
          "name": "_stateAgent",
          "type": "address"
        }
      ],
      "name": "markPropertyAsRented",
      "outputs": [],
      "stateMutability": "nonpayable",
      "type": "function"
    },
    {
      "inputs": [
        {
          "internalType": "uint16",
          "name": "",
          "type": "uint16"
        }
      ],
      "name": "properties",
      "outputs": [
        {
          "internalType": "uint16",
          "name": "propertyId",
          "type": "uint16"
        },
        {
          "internalType": "string",
          "name": "propertyAddress",
          "type": "string"
        },
        {
          "internalType": "string",
          "name": "cityArea",
          "type": "string"
        },
        {
          "internalType": "uint8",
          "name": "floor",
          "type": "uint8"
        },
        {
          "internalType": "address",
          "name": "ownerWallet",
          "type": "address"
        },
        {
          "internalType": "address",
          "name": "stateAgent",
          "type": "address"
        },
        {
          "internalType": "enum PropertyListing.PropertyStatus",
          "name": "status",
          "type": "uint8"
        },
        {
          "internalType": "bool",
          "name": "delistApproved",
          "type": "bool"
        },
        {
          "internalType": "string",
          "name": "description",
          "type": "string"
        },
        {
          "internalType": "string",
          "name": "propertyType",
          "type": "string"
        },
        {
          "internalType": "uint32",
          "name": "listingDate",
          "type": "uint32"
        }
      ],
      "stateMutability": "view",
      "type": "function"
    },
    {
      "inputs": [],
      "name": "propertyCount",
      "outputs": [
        {
          "internalType": "uint16",
          "name": "",
          "type": "uint16"
        }
      ],
      "stateMutability": "view",
      "type": "function"
    },
    {
      "inputs": [],
      "name": "registrationContract",
      "outputs": [
        {
          "internalType": "contract RegistrationContract",
          "name": "",
          "type": "address"
        }
      ],
      "stateMutability": "view",
      "type": "function"
    },
    {
      "inputs": [
        {
          "internalType": "string",
          "name": "",
          "type": "string"
        }
      ],
      "name": "uniquePropertyAddresses",
      "outputs": [
        {
          "internalType": "bool",
          "name": "",
          "type": "bool"
        }
      ],
      "stateMutability": "view",
      "type": "function"
    }
  ],
  "bytecode": "0x60806040523480156200001157600080fd5b506040516200242638038062002426833981810160405281019062000037919062000095565b806000806101000a81548173ffffffffffffffffffffffffffffffffffffffff021916908373ffffffffffffffffffffffffffffffffffffffff160217905550506200010f565b6000815190506200008f81620000f5565b92915050565b600060208284031215620000a857600080fd5b6000620000b8848285016200007e565b91505092915050565b6000620000ce82620000d5565b9050919050565b600073ffffffffffffffffffffffffffffffffffffffff82169050919050565b6200010081620000c1565b81146200010c57600080fd5b50565b612307806200011f6000396000f3fe608060405234801561001057600080fd5b506004361061009e5760003560e01c80638ec71aea116100665780638ec71aea14610145578063a9600b4c14610175578063ac64ae8e14610191578063c361a335146101ad578063f7b10808146101cb5761009e565b8063026e03ec146100a35780630f071d39146100d35780631cc2ea7a146100ef5780631e522c3e1461010b57806378f7ed7414610129575b600080fd5b6100bd60048036038101906100b891906115b7565b610202565b6040516100ca9190611ce3565b60405180910390f35b6100ed60048036038101906100e89190611762565b610238565b005b61010960048036038101906101049190611762565b6103ae565b005b61011361062d565b6040516101209190611cfe565b60405180910390f35b610143600480360381019061013e91906116a3565b610651565b005b61015f600480360381019061015a9190611762565b610c62565b60405161016c9190611cc8565b60405180910390f35b61018f600480360381019061018a9190611762565b610ca2565b005b6101ab60048036038101906101a69190611762565b610eeb565b005b6101b56111a3565b6040516101c29190611f9d565b60405180910390f35b6101e560048036038101906101e09190611762565b6111a9565b6040516101f9989796959493929190611daa565b60405180910390f35b6001818051602081018201805184825260208301602085012081835280955050505050506000915054906101000a900460ff1681565b60016003811115610272577f4e487b7100000000000000000000000000000000000000000000000000000000600052602160045260246000fd5b6002600083815260200190815260200160002060040160149054906101000a900460ff1660038111156102ce577f4e487b7100000000000000000000000000000000000000000000000000000000600052602160045260246000fd5b1461030e576040517f08c379a000000000000000000000000000000000000000000000000000000000815260040161030590611efd565b60405180910390fd5b600280600083815260200190815260200160002060040160146101000a81548160ff0219169083600381111561036d577f4e487b7100000000000000000000000000000000000000000000000000000000600052602160045260246000fd5b0217905550807fc9ad6f316a0c29919c9b20c406f1baca1b93c196df6515c9e236a803e8a50c1360026040516103a39190611d19565b60405180910390a250565b3373ffffffffffffffffffffffffffffffffffffffff166002600083815260200190815260200160002060040160009054906101000a900473ffffffffffffffffffffffffffffffffffffffff1673ffffffffffffffffffffffffffffffffffffffff1614610452576040517f08c379a000000000000000000000000000000000000000000000000000000000815260040161044990611e5d565b60405180910390fd5b6002600381111561048c577f4e487b7100000000000000000000000000000000000000000000000000000000600052602160045260246000fd5b6002600083815260200190815260200160002060040160149054906101000a900460ff1660038111156104e8577f4e487b7100000000000000000000000000000000000000000000000000000000600052602160045260246000fd5b1415610529576040517f08c379a000000000000000000000000000000000000000000000000000000000815260040161052090611edd565b60405180910390fd5b6002600082815260200190815260200160002060040160159054906101000a900460ff1661058c576040517f08c379a000000000000000000000000000000000000000000000000000000000815260040161058390611f3d565b60405180910390fd5b60036002600083815260200190815260200160002060040160146101000a81548160ff021916908360038111156105ec577f4e487b7100000000000000000000000000000000000000000000000000000000600052602160045260246000fd5b0217905550807fc9ad6f316a0c29919c9b20c406f1baca1b93c196df6515c9e236a803e8a50c1360036040516106229190611d19565b60405180910390a250565b60008054906101000a900473ffffffffffffffffffffffffffffffffffffffff1681565b60008060009054906101000a900473ffffffffffffffffffffffffffffffffffffffff1673ffffffffffffffffffffffffffffffffffffffff1663a87430ba336040518263ffffffff1660e01b81526004016106ad9190611cc8565b60006040518083038186803b1580156106c557600080fd5b505afa1580156106d9573d6000803e3d6000fd5b505050506040513d6000823e3d601f19601f8201168201806040525081019061070291906115f8565b509250505060006002811115610741577f4e487b7100000000000000000000000000000000000000000000000000000000600052602160045260246000fd5b81600281111561077a577f4e487b7100000000000000000000000000000000000000000000000000000000600052602160045260246000fd5b146107ba576040517f08c379a00000000000000000000000000000000000000000000000000000000081526004016107b190611ebd565b60405180910390fd5b6001866040516107ca9190611cb1565b908152602001604051809103902060009054906101000a900460ff1615610826576040517f08c379a000000000000000000000000000000000000000000000000000000000815260040161081d90611f5d565b60405180910390fd5b60008060009054906101000a900473ffffffffffffffffffffffffffffffffffffffff1673ffffffffffffffffffffffffffffffffffffffff1663a87430ba846040518263ffffffff1660e01b81526004016108829190611cc8565b60006040518083038186803b15801561089a57600080fd5b505afa1580156108ae573d6000803e3d6000fd5b505050506040513d6000823e3d601f19601f820116820180604052508101906108d791906115f8565b5092505050600280811115610915577f4e487b7100000000000000000000000000000000000000000000000000000000600052602160045260246000fd5b81600281111561094e577f4e487b7100000000000000000000000000000000000000000000000000000000600052602160045260246000fd5b1461098e576040517f08c379a000000000000000000000000000000000000000000000000000000000815260040161098590611e9d565b60405180910390fd5b6000600360008154809291906109a390612152565b9190505590506040518061010001604052808981526020018881526020018781526020018660ff1681526020018573ffffffffffffffffffffffffffffffffffffffff1681526020013373ffffffffffffffffffffffffffffffffffffffff16815260200160006003811115610a42577f4e487b7100000000000000000000000000000000000000000000000000000000600052602160045260246000fd5b815260200160001515815250600260008381526020019081526020016000206000820151816000019080519060200190610a7d9291906113f0565b506020820151816001019080519060200190610a9a9291906113f0565b506040820151816002019080519060200190610ab79291906113f0565b5060608201518160030160006101000a81548160ff021916908360ff16021790555060808201518160030160016101000a81548173ffffffffffffffffffffffffffffffffffffffff021916908373ffffffffffffffffffffffffffffffffffffffff16021790555060a08201518160040160006101000a81548173ffffffffffffffffffffffffffffffffffffffff021916908373ffffffffffffffffffffffffffffffffffffffff16021790555060c08201518160040160146101000a81548160ff02191690836003811115610bb8577f4e487b7100000000000000000000000000000000000000000000000000000000600052602160045260246000fd5b021790555060e08201518160040160156101000a81548160ff02191690831515021790555090505060018089604051610bf19190611cb1565b908152602001604051809103902060006101000a81548160ff021916908315150217905550807f677cf40c7634568d88e379fdaeabd842523fe77b586721bc97afc9cc37ba3e5e898989898933604051610c5096959493929190611d34565b60405180910390a25050505050505050565b60006002600083815260200190815260200160002060040160009054906101000a900473ffffffffffffffffffffffffffffffffffffffff169050919050565b3373ffffffffffffffffffffffffffffffffffffffff166002600083815260200190815260200160002060030160019054906101000a900473ffffffffffffffffffffffffffffffffffffffff1673ffffffffffffffffffffffffffffffffffffffff1614610d46576040517f08c379a0000000000000000000000000000000000000000000000000000000008152600401610d3d90611f1d565b60405180910390fd5b60006003811115610d80577f4e487b7100000000000000000000000000000000000000000000000000000000600052602160045260246000fd5b6002600083815260200190815260200160002060040160149054906101000a900460ff166003811115610ddc577f4e487b7100000000000000000000000000000000000000000000000000000000600052602160045260246000fd5b1480610e7a5750600380811115610e1c577f4e487b7100000000000000000000000000000000000000000000000000000000600052602160045260246000fd5b6002600083815260200190815260200160002060040160149054906101000a900460ff166003811115610e78577f4e487b7100000000000000000000000000000000000000000000000000000000600052602160045260246000fd5b145b610eb9576040517f08c379a0000000000000000000000000000000000000000000000000000000008152600401610eb090611e3d565b60405180910390fd5b60016002600083815260200190815260200160002060040160156101000a81548160ff02191690831515021790555050565b3373ffffffffffffffffffffffffffffffffffffffff166002600083815260200190815260200160002060030160019054906101000a900473ffffffffffffffffffffffffffffffffffffffff1673ffffffffffffffffffffffffffffffffffffffff1614610f8f576040517f08c379a0000000000000000000000000000000000000000000000000000000008152600401610f8690611e7d565b60405180910390fd5b60006003811115610fc9577f4e487b7100000000000000000000000000000000000000000000000000000000600052602160045260246000fd5b6002600083815260200190815260200160002060040160149054906101000a900460ff166003811115611025577f4e487b7100000000000000000000000000000000000000000000000000000000600052602160045260246000fd5b14806110c35750600380811115611065577f4e487b7100000000000000000000000000000000000000000000000000000000600052602160045260246000fd5b6002600083815260200190815260200160002060040160149054906101000a900460ff1660038111156110c1577f4e487b7100000000000000000000000000000000000000000000000000000000600052602160045260246000fd5b145b611102576040517f08c379a00000000000000000000000000000000000000000000000000000000081526004016110f990611f7d565b60405180910390fd5b60016002600083815260200190815260200160002060040160146101000a81548160ff02191690836003811115611162577f4e487b7100000000000000000000000000000000000000000000000000000000600052602160045260246000fd5b0217905550807fc9ad6f316a0c29919c9b20c406f1baca1b93c196df6515c9e236a803e8a50c1360016040516111989190611d19565b60405180910390a250565b60035481565b60026020528060005260406000206000915090508060000180546111cc90612120565b80601f01602080910402602001604051908101604052809291908181526020018280546111f890612120565b80156112455780601f1061121a57610100808354040283529160200191611245565b820191906000526020600020905b81548152906001019060200180831161122857829003601f168201915b50505050509080600101805461125a90612120565b80601f016020809104026020016040519081016040528092919081815260200182805461128690612120565b80156112d35780601f106112a8576101008083540402835291602001916112d3565b820191906000526020600020905b8154815290600101906020018083116112b657829003601f168201915b5050505050908060020180546112e890612120565b80601f016020809104026020016040519081016040528092919081815260200182805461131490612120565b80156113615780601f1061133657610100808354040283529160200191611361565b820191906000526020600020905b81548152906001019060200180831161134457829003601f168201915b5050505050908060030160009054906101000a900460ff16908060030160019054906101000a900473ffffffffffffffffffffffffffffffffffffffff16908060040160009054906101000a900473ffffffffffffffffffffffffffffffffffffffff16908060040160149054906101000a900460ff16908060040160159054906101000a900460ff16905088565b8280546113fc90612120565b90600052602060002090601f01602090048101928261141e5760008555611465565b82601f1061143757805160ff1916838001178555611465565b82800160010185558215611465579182015b82811115611464578251825591602001919060010190611449565b5b5090506114729190611476565b5090565b5b8082111561148f576000816000905550600101611477565b5090565b60006114a66114a184611fe9565b611fb8565b9050828152602081018484840111156114be57600080fd5b6114c98482856120de565b509392505050565b60006114e46114df84611fe9565b611fb8565b9050828152602081018484840111156114fc57600080fd5b6115078482856120ed565b509392505050565b60008135905061151e8161227c565b92915050565b60008151905061153381612293565b92915050565b600082601f83011261154a57600080fd5b813561155a848260208601611493565b91505092915050565b600082601f83011261157457600080fd5b81516115848482602086016114d1565b91505092915050565b60008135905061159c816122a3565b92915050565b6000813590506115b1816122ba565b92915050565b6000602082840312156115c957600080fd5b600082013567ffffffffffffffff8111156115e357600080fd5b6115ef84828501611539565b91505092915050565b6000806000806080858703121561160e57600080fd5b600085015167ffffffffffffffff81111561162857600080fd5b61163487828801611563565b945050602085015167ffffffffffffffff81111561165157600080fd5b61165d87828801611563565b935050604061166e87828801611524565b925050606085015167ffffffffffffffff81111561168b57600080fd5b61169787828801611563565b91505092959194509250565b600080600080600060a086880312156116bb57600080fd5b600086013567ffffffffffffffff8111156116d557600080fd5b6116e188828901611539565b955050602086013567ffffffffffffffff8111156116fe57600080fd5b61170a88828901611539565b945050604086013567ffffffffffffffff81111561172757600080fd5b61173388828901611539565b9350506060611744888289016115a2565b92505060806117558882890161150f565b9150509295509295909350565b60006020828403121561177457600080fd5b60006117828482850161158d565b91505092915050565b61179481612040565b82525050565b6117a381612052565b82525050565b6117b2816120a8565b82525050565b6117c1816120cc565b82525050565b60006117d282612019565b6117dc8185612024565b93506117ec8185602086016120ed565b6117f581612257565b840191505092915050565b600061180b82612019565b6118158185612035565b93506118258185602086016120ed565b80840191505092915050565b600061183e604b83612024565b91507f50726f7065727479206d75737420626520696e2050656e64696e67206f72204460008301527f656c69737465642073746174757320746f20626520617070726f76656420666f60208301527f722064656c697374696e670000000000000000000000000000000000000000006040830152606082019050919050565b60006118ca602b83612024565b91507f4f6e6c79207468652053746174654167656e742063616e2064656c697374207460008301527f68652070726f70657274790000000000000000000000000000000000000000006020830152604082019050919050565b6000611930603883612024565b91507f4f6e6c79207468652070726f7065727479206f776e65722063616e206170707260008301527f6f7665207468652070726f7065727479206c697374696e6700000000000000006020830152604082019050919050565b6000611996602383612024565b91507f4f776e6572206d75737420626520612072656769737465726564204c616e646c60008301527f6f726400000000000000000000000000000000000000000000000000000000006020830152604082019050919050565b60006119fc602383612024565b91507f4f6e6c792053746174654167656e742063616e206c6973742070726f7065727460008301527f69657300000000000000000000000000000000000000000000000000000000006020830152604082019050919050565b6000611a62601f83612024565b91507f43616e6e6f742064656c69737420612072656e7465642070726f7065727479006000830152602082019050919050565b6000611aa2603083612024565b91507f50726f7065727479206d757374206265206c6973746564206265666f7265206d60008301527f61726b696e672061732072656e746564000000000000000000000000000000006020830152604082019050919050565b6000611b08602d83612024565b91507f4f6e6c79207468652070726f7065727479206f776e65722063616e206170707260008301527f6f76652064656c697374696e67000000000000000000000000000000000000006020830152604082019050919050565b6000611b6e602783612024565b91507f44656c697374696e67206d75737420626520617070726f76656420627920746860008301527f65206f776e6572000000000000000000000000000000000000000000000000006020830152604082019050919050565b6000611bd4602c83612024565b91507f50726f706572747920776974682074686973206164647265737320697320616c60008301527f7265616479206c697374656400000000000000000000000000000000000000006020830152604082019050919050565b6000611c3a603d83612024565b91507f50726f7065727479206d75737420626520696e2050656e64696e67206f72204460008301527f656c69737465642073746174757320746f20626520617070726f7665640000006020830152604082019050919050565b611c9c81612091565b82525050565b611cab8161209b565b82525050565b6000611cbd8284611800565b915081905092915050565b6000602082019050611cdd600083018461178b565b92915050565b6000602082019050611cf8600083018461179a565b92915050565b6000602082019050611d1360008301846117a9565b92915050565b6000602082019050611d2e60008301846117b8565b92915050565b600060c0820190508181036000830152611d4e81896117c7565b90508181036020830152611d6281886117c7565b90508181036040830152611d7681876117c7565b9050611d856060830186611ca2565b611d92608083018561178b565b611d9f60a083018461178b565b979650505050505050565b6000610100820190508181036000830152611dc5818b6117c7565b90508181036020830152611dd9818a6117c7565b90508181036040830152611ded81896117c7565b9050611dfc6060830188611ca2565b611e09608083018761178b565b611e1660a083018661178b565b611e2360c08301856117b8565b611e3060e083018461179a565b9998505050505050505050565b60006020820190508181036000830152611e5681611831565b9050919050565b60006020820190508181036000830152611e76816118bd565b9050919050565b60006020820190508181036000830152611e9681611923565b9050919050565b60006020820190508181036000830152611eb681611989565b9050919050565b60006020820190508181036000830152611ed6816119ef565b9050919050565b60006020820190508181036000830152611ef681611a55565b9050919050565b60006020820190508181036000830152611f1681611a95565b9050919050565b60006020820190508181036000830152611f3681611afb565b9050919050565b60006020820190508181036000830152611f5681611b61565b9050919050565b60006020820190508181036000830152611f7681611bc7565b9050919050565b60006020820190508181036000830152611f9681611c2d565b9050919050565b6000602082019050611fb26000830184611c93565b92915050565b6000604051905081810181811067ffffffffffffffff82111715611fdf57611fde612228565b5b8060405250919050565b600067ffffffffffffffff82111561200457612003612228565b5b601f19601f8301169050602081019050919050565b600081519050919050565b600082825260208201905092915050565b600081905092915050565b600061204b82612071565b9050919050565b60008115159050919050565b600081905061206c82612268565b919050565b600073ffffffffffffffffffffffffffffffffffffffff82169050919050565b6000819050919050565b600060ff82169050919050565b60006120b3826120ba565b9050919050565b60006120c582612071565b9050919050565b60006120d78261205e565b9050919050565b82818337600083830152505050565b60005b8381101561210b5780820151818401526020810190506120f0565b8381111561211a576000848401525b50505050565b6000600282049050600182168061213857607f821691505b6020821081141561214c5761214b6121f9565b5b50919050565b600061215d82612091565b91507fffffffffffffffffffffffffffffffffffffffffffffffffffffffffffffffff8214156121905761218f61219b565b5b600182019050919050565b7f4e487b7100000000000000000000000000000000000000000000000000000000600052601160045260246000fd5b7f4e487b7100000000000000000000000000000000000000000000000000000000600052602160045260246000fd5b7f4e487b7100000000000000000000000000000000000000000000000000000000600052602260045260246000fd5b7f4e487b7100000000000000000000000000000000000000000000000000000000600052604160045260246000fd5b6000601f19601f8301169050919050565b60048110612279576122786121ca565b5b50565b61228581612040565b811461229057600080fd5b50565b600381106122a057600080fd5b50565b6122ac81612091565b81146122b757600080fd5b50565b6122c38161209b565b81146122ce57600080fd5b5056fea2646970667358221220dd393912b313d127c7c5178b07c87006f12c698fe09c46c3c1f24012cb7d806364736f6c63430008000033",
  "linkReferences": {},
  "deployedLinkReferences": {}
}