{
  "_format": "hh-sol-artifact-1",
  "contractName": "RentalAgreement",
  "sourceName": "contracts/RentalAgreement.sol",
  "abi": [
    {
      "anonymous": false,
      "inputs": [
        {
          "indexed": true,
          "internalType": "uint16",
          "name": "agreementId",
          "type": "uint16"
        },
        {
          "indexed": false,
          "internalType": "uint256",
          "name": "startTime",
          "type": "uint256"
        },
        {
          "indexed": false,
          "internalType": "uint256",
          "name": "commissionAmount",
          "type": "uint256"
        }
      ],
      "name": "AgreementActivated",
      "type": "event"
    },
    {
      "anonymous": false,
      "inputs": [
        {
          "indexed": true,
          "internalType": "uint16",
          "name": "agreementId",
          "type": "uint16"
        },
        {
          "indexed": false,
          "internalType": "address",
          "name": "approver",
          "type": "address"
        },
        {
          "indexed": false,
          "internalType": "enum RentalAgreement.AgreementStatus",
          "name": "newStatus",
          "type": "uint8"
        }
      ],
      "name": "AgreementApproved",
      "type": "event"
    },
    {
      "anonymous": false,
      "inputs": [
        {
          "indexed": true,
          "internalType": "uint16",
          "name": "agreementId",
          "type": "uint16"
        }
      ],
      "name": "AgreementCanceled",
      "type": "event"
    },
    {
      "anonymous": false,
      "inputs": [
        {
          "indexed": true,
          "internalType": "uint16",
          "name": "agreementId",
          "type": "uint16"
        },
        {
          "indexed": false,
          "internalType": "address",
          "name": "landlord",
          "type": "address"
        },
        {
          "indexed": false,
          "internalType": "address",
          "name": "tenant",
          "type": "address"
        },
        {
          "indexed": false,
          "internalType": "uint16",
          "name": "propertyId",
          "type": "uint16"
        },
        {
          "indexed": false,
          "internalType": "uint256",
          "name": "rentAmount",
          "type": "uint256"
        },
        {
          "indexed": false,
          "internalType": "uint256",
          "name": "durationMonths",
          "type": "uint256"
        },
        {
          "indexed": false,
          "internalType": "uint256",
          "name": "advancePayment",
          "type": "uint256"
        },
        {
          "indexed": false,
          "internalType": "address",
          "name": "stateAgent",
          "type": "address"
        }
      ],
      "name": "AgreementCreated",
      "type": "event"
    },
    {
      "inputs": [
        {
          "internalType": "uint16",
          "name": "_agreementId",
          "type": "uint16"
        }
      ],
      "name": "activateAgreement",
      "outputs": [],
      "stateMutability": "nonpayable",
      "type": "function"
    },
    {
      "inputs": [
        {
          "internalType": "uint16",
          "name": "_agreementId",
          "type": "uint16"
        }
      ],
      "name": "approveCancellation",
      "outputs": [],
      "stateMutability": "nonpayable",
      "type": "function"
    },
    {
      "inputs": [
        {
          "internalType": "uint16",
          "name": "_agreementId",
          "type": "uint16"
        }
      ],
      "name": "cancelAgreement",
      "outputs": [],
      "stateMutability": "nonpayable",
      "type": "function"
    },
    {
      "inputs": [
        {
          "internalType": "uint16",
          "name": "_propertyId",
          "type": "uint16"
        },
        {
          "internalType": "uint256",
          "name": "_rentAmount",
          "type": "uint256"
        },
        {
          "internalType": "uint256",
          "name": "_durationMonths",
          "type": "uint256"
        },
        {
          "internalType": "uint256",
          "name": "_advancePayment",
          "type": "uint256"
        },
        {
          "internalType": "address",
          "name": "_landlord",
          "type": "address"
        },
        {
          "internalType": "address",
          "name": "_tenant",
          "type": "address"
        },
        {
          "internalType": "string",
          "name": "_extraDetail",
          "type": "string"
        }
      ],
      "name": "createAgreement",
      "outputs": [],
      "stateMutability": "nonpayable",
      "type": "function"
    },
    {
      "inputs": [
        {
          "internalType": "uint16",
          "name": "_agreementId",
          "type": "uint16"
        }
      ],
      "name": "landlordApproveAgreement",
      "outputs": [],
      "stateMutability": "nonpayable",
      "type": "function"
    },
    {
      "inputs": [
        {
          "internalType": "uint16",
          "name": "_agreementId",
          "type": "uint16"
        }
      ],
      "name": "tenantApproveAgreement",
      "outputs": [],
      "stateMutability": "payable",
      "type": "function"
    },
    {
      "inputs": [
        {
          "internalType": "address",
          "name": "_propertyListing",
          "type": "address"
        }
      ],
      "stateMutability": "nonpayable",
      "type": "constructor"
    },
    {
      "inputs": [],
      "name": "agreementCount",
      "outputs": [
        {
          "internalType": "uint16",
          "name": "",
          "type": "uint16"
        }
      ],
      "stateMutability": "view",
      "type": "function"
    },
    {
      "inputs": [
        {
          "internalType": "uint16",
          "name": "",
          "type": "uint16"
        }
      ],
      "name": "agreements",
      "outputs": [
        {
          "internalType": "uint16",
          "name": "agreementId",
          "type": "uint16"
        },
        {
          "internalType": "address",
          "name": "landlord",
          "type": "address"
        },
        {
          "internalType": "address",
          "name": "tenant",
          "type": "address"
        },
        {
          "internalType": "address",
          "name": "stateAgent",
          "type": "address"
        },
        {
          "internalType": "uint16",
          "name": "propertyId",
          "type": "uint16"
        },
        {
          "internalType": "uint256",
          "name": "rentAmount",
          "type": "uint256"
        },
        {
          "internalType": "uint256",
          "name": "durationMonths",
          "type": "uint256"
        },
        {
          "internalType": "uint256",
          "name": "advancePayment",
          "type": "uint256"
        },
        {
          "internalType": "uint256",
          "name": "startTime",
          "type": "uint256"
        },
        {
          "internalType": "enum RentalAgreement.AgreementStatus",
          "name": "status",
          "type": "uint8"
        },
        {
          "internalType": "bool",
          "name": "landlordApprovalForCancellation",
          "type": "bool"
        },
        {
          "internalType": "bool",
          "name": "tenantApprovalForCancellation",
          "type": "bool"
        },
        {
          "internalType": "string",
          "name": "extraDetail",
          "type": "string"
        }
      ],
      "stateMutability": "view",
      "type": "function"
    },
    {
      "inputs": [
        {
          "internalType": "uint16",
          "name": "",
          "type": "uint16"
        },
        {
          "internalType": "address",
          "name": "",
          "type": "address"
        }
      ],
      "name": "existingAgreement",
      "outputs": [
        {
          "internalType": "bool",
          "name": "",
          "type": "bool"
        }
      ],
      "stateMutability": "view",
      "type": "function"
    },
    {
      "inputs": [
        {
          "internalType": "address",
          "name": "landlord",
          "type": "address"
        }
      ],
      "name": "getAllAgreementsForLandlords",
      "outputs": [
        {
          "components": [
            {
              "internalType": "uint16",
              "name": "agreementId",
              "type": "uint16"
            },
            {
              "internalType": "address",
              "name": "landlord",
              "type": "address"
            },
            {
              "internalType": "address",
              "name": "tenant",
              "type": "address"
            },
            {
              "internalType": "address",
              "name": "stateAgent",
              "type": "address"
            },
            {
              "internalType": "uint16",
              "name": "propertyId",
              "type": "uint16"
            },
            {
              "internalType": "uint256",
              "name": "rentAmount",
              "type": "uint256"
            },
            {
              "internalType": "uint256",
              "name": "durationMonths",
              "type": "uint256"
            },
            {
              "internalType": "uint256",
              "name": "advancePayment",
              "type": "uint256"
            },
            {
              "internalType": "uint256",
              "name": "startTime",
              "type": "uint256"
            },
            {
              "internalType": "enum RentalAgreement.AgreementStatus",
              "name": "status",
              "type": "uint8"
            },
            {
              "internalType": "bool",
              "name": "landlordApprovalForCancellation",
              "type": "bool"
            },
            {
              "internalType": "bool",
              "name": "tenantApprovalForCancellation",
              "type": "bool"
            },
            {
              "internalType": "string",
              "name": "extraDetail",
              "type": "string"
            }
          ],
          "internalType": "struct RentalAgreement.Agreement[]",
          "name": "",
          "type": "tuple[]"
        }
      ],
      "stateMutability": "view",
      "type": "function"
    },
    {
      "inputs": [
        {
          "internalType": "address",
          "name": "stateAgent",
          "type": "address"
        }
      ],
      "name": "getAllAgreementsForStateAgents",
      "outputs": [
        {
          "components": [
            {
              "internalType": "uint16",
              "name": "agreementId",
              "type": "uint16"
            },
            {
              "internalType": "address",
              "name": "landlord",
              "type": "address"
            },
            {
              "internalType": "address",
              "name": "tenant",
              "type": "address"
            },
            {
              "internalType": "address",
              "name": "stateAgent",
              "type": "address"
            },
            {
              "internalType": "uint16",
              "name": "propertyId",
              "type": "uint16"
            },
            {
              "internalType": "uint256",
              "name": "rentAmount",
              "type": "uint256"
            },
            {
              "internalType": "uint256",
              "name": "durationMonths",
              "type": "uint256"
            },
            {
              "internalType": "uint256",
              "name": "advancePayment",
              "type": "uint256"
            },
            {
              "internalType": "uint256",
              "name": "startTime",
              "type": "uint256"
            },
            {
              "internalType": "enum RentalAgreement.AgreementStatus",
              "name": "status",
              "type": "uint8"
            },
            {
              "internalType": "bool",
              "name": "landlordApprovalForCancellation",
              "type": "bool"
            },
            {
              "internalType": "bool",
              "name": "tenantApprovalForCancellation",
              "type": "bool"
            },
            {
              "internalType": "string",
              "name": "extraDetail",
              "type": "string"
            }
          ],
          "internalType": "struct RentalAgreement.Agreement[]",
          "name": "",
          "type": "tuple[]"
        }
      ],
      "stateMutability": "view",
      "type": "function"
    },
    {
      "inputs": [
        {
          "internalType": "address",
          "name": "tenant",
          "type": "address"
        }
      ],
      "name": "getAllAgreementsForTenants",
      "outputs": [
        {
          "components": [
            {
              "internalType": "uint16",
              "name": "agreementId",
              "type": "uint16"
            },
            {
              "internalType": "address",
              "name": "landlord",
              "type": "address"
            },
            {
              "internalType": "address",
              "name": "tenant",
              "type": "address"
            },
            {
              "internalType": "address",
              "name": "stateAgent",
              "type": "address"
            },
            {
              "internalType": "uint16",
              "name": "propertyId",
              "type": "uint16"
            },
            {
              "internalType": "uint256",
              "name": "rentAmount",
              "type": "uint256"
            },
            {
              "internalType": "uint256",
              "name": "durationMonths",
              "type": "uint256"
            },
            {
              "internalType": "uint256",
              "name": "advancePayment",
              "type": "uint256"
            },
            {
              "internalType": "uint256",
              "name": "startTime",
              "type": "uint256"
            },
            {
              "internalType": "enum RentalAgreement.AgreementStatus",
              "name": "status",
              "type": "uint8"
            },
            {
              "internalType": "bool",
              "name": "landlordApprovalForCancellation",
              "type": "bool"
            },
            {
              "internalType": "bool",
              "name": "tenantApprovalForCancellation",
              "type": "bool"
            },
            {
              "internalType": "string",
              "name": "extraDetail",
              "type": "string"
            }
          ],
          "internalType": "struct RentalAgreement.Agreement[]",
          "name": "",
          "type": "tuple[]"
        }
      ],
      "stateMutability": "view",
      "type": "function"
    },
    {
      "inputs": [],
      "name": "getAllAgreementsWithDetails",
      "outputs": [
        {
          "components": [
            {
              "internalType": "uint16",
              "name": "agreementId",
              "type": "uint16"
            },
            {
              "internalType": "address",
              "name": "landlord",
              "type": "address"
            },
            {
              "internalType": "address",
              "name": "tenant",
              "type": "address"
            },
            {
              "internalType": "address",
              "name": "stateAgent",
              "type": "address"
            },
            {
              "internalType": "uint16",
              "name": "propertyId",
              "type": "uint16"
            },
            {
              "internalType": "uint256",
              "name": "rentAmount",
              "type": "uint256"
            },
            {
              "internalType": "uint256",
              "name": "durationMonths",
              "type": "uint256"
            },
            {
              "internalType": "uint256",
              "name": "advancePayment",
              "type": "uint256"
            },
            {
              "internalType": "uint256",
              "name": "startTime",
              "type": "uint256"
            },
            {
              "internalType": "enum RentalAgreement.AgreementStatus",
              "name": "status",
              "type": "uint8"
            },
            {
              "internalType": "bool",
              "name": "landlordApprovalForCancellation",
              "type": "bool"
            },
            {
              "internalType": "bool",
              "name": "tenantApprovalForCancellation",
              "type": "bool"
            },
            {
              "internalType": "string",
              "name": "extraDetail",
              "type": "string"
            }
          ],
          "internalType": "struct RentalAgreement.Agreement[]",
          "name": "",
          "type": "tuple[]"
        }
      ],
      "stateMutability": "view",
      "type": "function"
    },
    {
      "inputs": [],
      "name": "propertyListing",
      "outputs": [
        {
          "internalType": "contract PropertyListing",
          "name": "",
          "type": "address"
        }
      ],
      "stateMutability": "view",
      "type": "function"
    }
  ],
  "bytecode": "0x60806040523480156200001157600080fd5b506040516200260038038062002600833981810160405281019062000037919062000095565b806000806101000a81548173ffffffffffffffffffffffffffffffffffffffff021916908373ffffffffffffffffffffffffffffffffffffffff160217905550506200010f565b6000815190506200008f81620000f5565b92915050565b600060208284031215620000a857600080fd5b6000620000b8848285016200007e565b91505092915050565b6000620000ce82620000d5565b9050919050565b600073ffffffffffffffffffffffffffffffffffffffff82169050919050565b6200010081620000c1565b81146200010c57600080fd5b50565b6124e1806200011f6000396000f3fe608060405234801561001057600080fd5b506004361061009e5760003560e01c8063a8f1b71111610066578063a8f1b71114610143578063bb7bb27814610161578063bd14de961461017f578063de640390146101b8578063f589ff48146101d45761009e565b80631f1c2325146100a357806334a82538146100bf5780635686b54b146100db5780638e143244146100f7578063a695203014610113575b600080fd5b6100bd60048036038101906100b89190611928565b6101f0565b005b6100d960048036038101906100d4919061198d565b61040c565b005b6100f560048036038101906100f09190611928565b610a25565b005b610111600480360381019061010c9190611928565b610d90565b005b61012d60048036038101906101289190611951565b6110f8565b60405161013a9190611fb1565b60405180910390f35b61014b611127565b6040516101589190611fcc565b60405180910390f35b61016961114b565b6040516101769190612147565b60405180910390f35b61019960048036038101906101949190611928565b611151565b6040516101af9a99989796959493929190611e8b565b60405180910390f35b6101d260048036038101906101cd9190611928565b61122c565b005b6101ee60048036038101906101e99190611928565b611502565b005b6001600082815260200190815260200160002060000160009054906101000a900473ffffffffffffffffffffffffffffffffffffffff1673ffffffffffffffffffffffffffffffffffffffff163373ffffffffffffffffffffffffffffffffffffffff1614610294576040517f08c379a000000000000000000000000000000000000000000000000000000000815260040161028b90612067565b60405180910390fd5b600060058111156102ce577f4e487b7100000000000000000000000000000000000000000000000000000000600052602160045260246000fd5b6001600083815260200190815260200160002060070160009054906101000a900460ff16600581111561032a577f4e487b7100000000000000000000000000000000000000000000000000000000600052602160045260246000fd5b1461036a576040517f08c379a0000000000000000000000000000000000000000000000000000000008152600401610361906120a7565b60405180910390fd5b600180600083815260200190815260200160002060070160006101000a81548160ff021916908360058111156103c9577f4e487b7100000000000000000000000000000000000000000000000000000000600052602160045260246000fd5b0217905550807fd16fb123e75479bc190d79ba014140fb300c32d7e590ef01816b96584ae9a215336001604051610401929190611f88565b60405180910390a250565b6002600086815260200190815260200160002060008273ffffffffffffffffffffffffffffffffffffffff1673ffffffffffffffffffffffffffffffffffffffff16815260200190815260200160002060009054906101000a900460ff161580156104d257506002600086815260200190815260200160002060008373ffffffffffffffffffffffffffffffffffffffff1673ffffffffffffffffffffffffffffffffffffffff16815260200190815260200160002060009054906101000a900460ff16155b610511576040517f08c379a000000000000000000000000000000000000000000000000000000000815260040161050890612107565b60405180910390fd5b60008054906101000a900473ffffffffffffffffffffffffffffffffffffffff1673ffffffffffffffffffffffffffffffffffffffff16638ec71aea866040518263ffffffff1660e01b815260040161056a9190612147565b60206040518083038186803b15801561058257600080fd5b505afa158015610596573d6000803e3d6000fd5b505050506040513d601f19601f820116820180604052508101906105ba9190611805565b73ffffffffffffffffffffffffffffffffffffffff163373ffffffffffffffffffffffffffffffffffffffff1614610627576040517f08c379a000000000000000000000000000000000000000000000000000000000815260040161061e906120e7565b60405180910390fd5b60008060008054906101000a900473ffffffffffffffffffffffffffffffffffffffff1673ffffffffffffffffffffffffffffffffffffffff1663f7b10808886040518263ffffffff1660e01b81526004016106839190612147565b60006040518083038186803b15801561069b57600080fd5b505afa1580156106af573d6000803e3d6000fd5b505050506040513d6000823e3d601f19601f820116820180604052508101906106d8919061182e565b505095509550505050506000600360008154809291906106f790612355565b9190505590506001600260008a815260200190815260200160002060008673ffffffffffffffffffffffffffffffffffffffff1673ffffffffffffffffffffffffffffffffffffffff16815260200190815260200160002060006101000a81548160ff0219169083151502179055506040518061014001604052808473ffffffffffffffffffffffffffffffffffffffff1681526020018573ffffffffffffffffffffffffffffffffffffffff1681526020018373ffffffffffffffffffffffffffffffffffffffff1681526020018981526020018881526020018781526020016000815260200160006005811115610819577f4e487b7100000000000000000000000000000000000000000000000000000000600052602160045260246000fd5b8152602001600015158152602001600015158152506001600083815260200190815260200160002060008201518160000160006101000a81548173ffffffffffffffffffffffffffffffffffffffff021916908373ffffffffffffffffffffffffffffffffffffffff16021790555060208201518160010160006101000a81548173ffffffffffffffffffffffffffffffffffffffff021916908373ffffffffffffffffffffffffffffffffffffffff16021790555060408201518160020160006101000a81548173ffffffffffffffffffffffffffffffffffffffff021916908373ffffffffffffffffffffffffffffffffffffffff160217905550606082015181600301556080820151816004015560a0820151816005015560c0820151816006015560e08201518160070160006101000a81548160ff0219169083600581111561098f577f4e487b7100000000000000000000000000000000000000000000000000000000600052602160045260246000fd5b02179055506101008201518160070160016101000a81548160ff0219169083151502179055506101208201518160070160026101000a81548160ff021916908315150217905550905050807f7821e09c7e2477db082a0211ea3d408e16676d32fed79cc59253cb4f765f4b7684868b8b8b88604051610a1396959493929190611f27565b60405180910390a25050505050505050565b6001600082815260200190815260200160002060000160009054906101000a900473ffffffffffffffffffffffffffffffffffffffff1673ffffffffffffffffffffffffffffffffffffffff163373ffffffffffffffffffffffffffffffffffffffff161480610af657506001600082815260200190815260200160002060010160009054906101000a900473ffffffffffffffffffffffffffffffffffffffff1673ffffffffffffffffffffffffffffffffffffffff163373ffffffffffffffffffffffffffffffffffffffff16145b610b35576040517f08c379a0000000000000000000000000000000000000000000000000000000008152600401610b2c90612047565b60405180910390fd5b60036005811115610b6f577f4e487b7100000000000000000000000000000000000000000000000000000000600052602160045260246000fd5b6001600083815260200190815260200160002060070160009054906101000a900460ff166005811115610bcb577f4e487b7100000000000000000000000000000000000000000000000000000000600052602160045260246000fd5b1415610c5a5762278d006001600083815260200190815260200160002060050154610bf6919061222a565b6001600083815260200190815260200160002060060154610c1791906121d4565b421015610c59576040517f08c379a0000000000000000000000000000000000000000000000000000000008152600401610c50906120c7565b60405180910390fd5b5b60008054906101000a900473ffffffffffffffffffffffffffffffffffffffff1673ffffffffffffffffffffffffffffffffffffffff16631cc2ea7a60016000848152602001908152602001600020600301546040518263ffffffff1660e01b8152600401610cc99190612147565b600060405180830381600087803b158015610ce357600080fd5b505af1158015610cf7573d6000803e3d6000fd5b5050505060056001600083815260200190815260200160002060070160006101000a81548160ff02191690836005811115610d5b577f4e487b7100000000000000000000000000000000000000000000000000000000600052602160045260246000fd5b0217905550807f4d4ae8122a91294462cf0857b57ffb7fd0d69f43cfbcd73c49bd47cd67a968ee60405160405180910390a250565b6001600082815260200190815260200160002060000160009054906101000a900473ffffffffffffffffffffffffffffffffffffffff1673ffffffffffffffffffffffffffffffffffffffff163373ffffffffffffffffffffffffffffffffffffffff161480610e6157506001600082815260200190815260200160002060010160009054906101000a900473ffffffffffffffffffffffffffffffffffffffff1673ffffffffffffffffffffffffffffffffffffffff163373ffffffffffffffffffffffffffffffffffffffff16145b610ea0576040517f08c379a0000000000000000000000000000000000000000000000000000000008152600401610e9790612087565b60405180910390fd5b6001600082815260200190815260200160002060000160009054906101000a900473ffffffffffffffffffffffffffffffffffffffff1673ffffffffffffffffffffffffffffffffffffffff163373ffffffffffffffffffffffffffffffffffffffff161415610f3d57600180600083815260200190815260200160002060070160016101000a81548160ff021916908315150217905550610f6c565b600180600083815260200190815260200160002060070160026101000a81548160ff0219169083151502179055505b6001600082815260200190815260200160002060070160019054906101000a900460ff168015610fbc57506001600082815260200190815260200160002060070160029054906101000a900460ff165b156110f55760008054906101000a900473ffffffffffffffffffffffffffffffffffffffff1673ffffffffffffffffffffffffffffffffffffffff16631cc2ea7a60016000848152602001908152602001600020600301546040518263ffffffff1660e01b81526004016110309190612147565b600060405180830381600087803b15801561104a57600080fd5b505af115801561105e573d6000803e3d6000fd5b5050505060056001600083815260200190815260200160002060070160006101000a81548160ff021916908360058111156110c2577f4e487b7100000000000000000000000000000000000000000000000000000000600052602160045260246000fd5b0217905550807f4d4ae8122a91294462cf0857b57ffb7fd0d69f43cfbcd73c49bd47cd67a968ee60405160405180910390a25b50565b60026020528160005260406000206020528060005260406000206000915091509054906101000a900460ff1681565b60008054906101000a900473ffffffffffffffffffffffffffffffffffffffff1681565b60035481565b60016020528060005260406000206000915090508060000160009054906101000a900473ffffffffffffffffffffffffffffffffffffffff16908060010160009054906101000a900473ffffffffffffffffffffffffffffffffffffffff16908060020160009054906101000a900473ffffffffffffffffffffffffffffffffffffffff16908060030154908060040154908060050154908060060154908060070160009054906101000a900460ff16908060070160019054906101000a900460ff16908060070160029054906101000a900460ff1690508a565b60026005811115611266577f4e487b7100000000000000000000000000000000000000000000000000000000600052602160045260246000fd5b6001600083815260200190815260200160002060070160009054906101000a900460ff1660058111156112c2577f4e487b7100000000000000000000000000000000000000000000000000000000600052602160045260246000fd5b14611302576040517f08c379a00000000000000000000000000000000000000000000000000000000081526004016112f990611fe7565b60405180910390fd5b6001600082815260200190815260200160002060020160009054906101000a900473ffffffffffffffffffffffffffffffffffffffff1673ffffffffffffffffffffffffffffffffffffffff163373ffffffffffffffffffffffffffffffffffffffff16146113a6576040517f08c379a000000000000000000000000000000000000000000000000000000000815260040161139d90612127565b60405180910390fd5b60036001600083815260200190815260200160002060070160006101000a81548160ff02191690836005811115611406577f4e487b7100000000000000000000000000000000000000000000000000000000600052602160045260246000fd5b021790555042600160008381526020019081526020016000206006018190555060008054906101000a900473ffffffffffffffffffffffffffffffffffffffff1673ffffffffffffffffffffffffffffffffffffffff16630f071d3960016000848152602001908152602001600020600301546040518263ffffffff1660e01b81526004016114959190612147565b600060405180830381600087803b1580156114af57600080fd5b505af11580156114c3573d6000803e3d6000fd5b50505050807f364e9e9426a2310fc3091f22ddad83cfad9593ffe7ca19061498a424fcb6ab77426040516114f79190612147565b60405180910390a250565b6001600082815260200190815260200160002060010160009054906101000a900473ffffffffffffffffffffffffffffffffffffffff1673ffffffffffffffffffffffffffffffffffffffff163373ffffffffffffffffffffffffffffffffffffffff16146115a6576040517f08c379a000000000000000000000000000000000000000000000000000000000815260040161159d90612027565b60405180910390fd5b600160058111156115e0577f4e487b7100000000000000000000000000000000000000000000000000000000600052602160045260246000fd5b6001600083815260200190815260200160002060070160009054906101000a900460ff16600581111561163c577f4e487b7100000000000000000000000000000000000000000000000000000000600052602160045260246000fd5b1461167c576040517f08c379a000000000000000000000000000000000000000000000000000000000815260040161167390612007565b60405180910390fd5b60026001600083815260200190815260200160002060070160006101000a81548160ff021916908360058111156116dc577f4e487b7100000000000000000000000000000000000000000000000000000000600052602160045260246000fd5b0217905550807fd16fb123e75479bc190d79ba014140fb300c32d7e590ef01816b96584ae9a215336002604051611714929190611f88565b60405180910390a250565b600061173261172d84612193565b612162565b90508281526020810184848401111561174a57600080fd5b611755848285612322565b509392505050565b60008135905061176c8161243f565b92915050565b6000815190506117818161243f565b92915050565b60008151905061179681612456565b92915050565b6000815190506117ab8161246d565b92915050565b600082601f8301126117c257600080fd5b81516117d284826020860161171f565b91505092915050565b6000813590506117ea8161247d565b92915050565b6000815190506117ff81612494565b92915050565b60006020828403121561181757600080fd5b600061182584828501611772565b91505092915050565b600080600080600080600080610100898b03121561184b57600080fd5b600089015167ffffffffffffffff81111561186557600080fd5b6118718b828c016117b1565b985050602089015167ffffffffffffffff81111561188e57600080fd5b61189a8b828c016117b1565b975050604089015167ffffffffffffffff8111156118b757600080fd5b6118c38b828c016117b1565b96505060606118d48b828c016117f0565b95505060806118e58b828c01611772565b94505060a06118f68b828c01611772565b93505060c06119078b828c0161179c565b92505060e06119188b828c01611787565b9150509295985092959890939650565b60006020828403121561193a57600080fd5b6000611948848285016117db565b91505092915050565b6000806040838503121561196457600080fd5b6000611972858286016117db565b92505060206119838582860161175d565b9150509250929050565b600080600080600060a086880312156119a557600080fd5b60006119b3888289016117db565b95505060206119c4888289016117db565b94505060406119d5888289016117db565b93505060606119e68882890161175d565b92505060806119f78882890161175d565b9150509295509295909350565b611a0d81612284565b82525050565b611a1c81612296565b82525050565b611a2b816122ec565b82525050565b611a3a81612310565b82525050565b6000611a4d6025836121c3565b91507f54656e616e74206d75737420617070726f7665206265666f726520616374697660008301527f6174696f6e0000000000000000000000000000000000000000000000000000006020830152604082019050919050565b6000611ab36023836121c3565b91507f4c616e646c6f7264206d75737420617070726f7665206265666f72652074656e60008301527f616e7400000000000000000000000000000000000000000000000000000000006020830152604082019050919050565b6000611b196025836121c3565b91507f4f6e6c792074656e616e742063616e20617070726f766520746865206167726560008301527f656d656e740000000000000000000000000000000000000000000000000000006020830152604082019050919050565b6000611b7f602c836121c3565b91507f4f6e6c79206c616e646c6f7264206f722074656e616e742063616e2063616e6360008301527f656c2061677265656d656e7400000000000000000000000000000000000000006020830152604082019050919050565b6000611be56027836121c3565b91507f4f6e6c79206c616e646c6f72642063616e20617070726f76652074686520616760008301527f7265656d656e74000000000000000000000000000000000000000000000000006020830152604082019050919050565b6000611c4b6030836121c3565b91507f4f6e6c79206c616e646c6f7264206f722074656e616e742063616e206170707260008301527f6f76652063616e63656c6c6174696f6e000000000000000000000000000000006020830152604082019050919050565b6000611cb16019836121c3565b91507f41677265656d656e74206d7573742062652070656e64696e67000000000000006000830152602082019050919050565b6000611cf16016836121c3565b91507f4475726174696f6e206e6f7420636f6d706c65746564000000000000000000006000830152602082019050919050565b6000611d316025836121c3565b91507f4f6e6c792053746174654167656e742063616e2063726561746520616772656560008301527f6d656e74730000000000000000000000000000000000000000000000000000006020830152604082019050919050565b6000611d976048836121c3565b91507f416e2061677265656d656e742077697468207468652073616d652070726f706560008301527f7274792c206c616e646c6f72642c20616e642074656e616e7420616c7265616460208301527f79206578697374730000000000000000000000000000000000000000000000006040830152606082019050919050565b6000611e236026836121c3565b91507f4f6e6c792053746174654167656e742063616e2061637469766174652061677260008301527f65656d656e7400000000000000000000000000000000000000000000000000006020830152604082019050919050565b611e85816122d5565b82525050565b600061014082019050611ea1600083018d611a04565b611eae602083018c611a04565b611ebb604083018b611a04565b611ec8606083018a611e7c565b611ed56080830189611e7c565b611ee260a0830188611e7c565b611eef60c0830187611e7c565b611efc60e0830186611a31565b611f0a610100830185611a13565b611f18610120830184611a13565b9b9a5050505050505050505050565b600060c082019050611f3c6000830189611a04565b611f496020830188611a04565b611f566040830187611e7c565b611f636060830186611e7c565b611f706080830185611e7c565b611f7d60a0830184611a04565b979650505050505050565b6000604082019050611f9d6000830185611a04565b611faa6020830184611a31565b9392505050565b6000602082019050611fc66000830184611a13565b92915050565b6000602082019050611fe16000830184611a22565b92915050565b6000602082019050818103600083015261200081611a40565b9050919050565b6000602082019050818103600083015261202081611aa6565b9050919050565b6000602082019050818103600083015261204081611b0c565b9050919050565b6000602082019050818103600083015261206081611b72565b9050919050565b6000602082019050818103600083015261208081611bd8565b9050919050565b600060208201905081810360008301526120a081611c3e565b9050919050565b600060208201905081810360008301526120c081611ca4565b9050919050565b600060208201905081810360008301526120e081611ce4565b9050919050565b6000602082019050818103600083015261210081611d24565b9050919050565b6000602082019050818103600083015261212081611d8a565b9050919050565b6000602082019050818103600083015261214081611e16565b9050919050565b600060208201905061215c6000830184611e7c565b92915050565b6000604051905081810181811067ffffffffffffffff82111715612189576121886123fc565b5b8060405250919050565b600067ffffffffffffffff8211156121ae576121ad6123fc565b5b601f19601f8301169050602081019050919050565b600082825260208201905092915050565b60006121df826122d5565b91506121ea836122d5565b9250827fffffffffffffffffffffffffffffffffffffffffffffffffffffffffffffffff0382111561221f5761221e61239e565b5b828201905092915050565b6000612235826122d5565b9150612240836122d5565b9250817fffffffffffffffffffffffffffffffffffffffffffffffffffffffffffffffff04831182151516156122795761227861239e565b5b828202905092915050565b600061228f826122b5565b9050919050565b60008115159050919050565b60008190506122b08261242b565b919050565b600073ffffffffffffffffffffffffffffffffffffffff82169050919050565b6000819050919050565b600060ff82169050919050565b60006122f7826122fe565b9050919050565b6000612309826122b5565b9050919050565b600061231b826122a2565b9050919050565b60005b83811015612340578082015181840152602081019050612325565b8381111561234f576000848401525b50505050565b6000612360826122d5565b91507fffffffffffffffffffffffffffffffffffffffffffffffffffffffffffffffff8214156123935761239261239e565b5b600182019050919050565b7f4e487b7100000000000000000000000000000000000000000000000000000000600052601160045260246000fd5b7f4e487b7100000000000000000000000000000000000000000000000000000000600052602160045260246000fd5b7f4e487b7100000000000000000000000000000000000000000000000000000000600052604160045260246000fd5b6006811061243c5761243b6123cd565b5b50565b61244881612284565b811461245357600080fd5b50565b61245f81612296565b811461246a57600080fd5b50565b6004811061247a57600080fd5b50565b612486816122d5565b811461249157600080fd5b50565b61249d816122df565b81146124a857600080fd5b5056fea2646970667358221220c0ec272bba018c53bf98782f2a6ba701f00a9a1e4f2d1df6c4af5c8ec5c0f5a064736f6c63430008000033",
  "linkReferences": {},
  "deployedLinkReferences": {}
}