{
  "_format": "hh-sol-artifact-1",
  "contractName": "CommissionContract",
  "sourceName": "contracts/CommissionContract.sol",
  "abi": [
    {
      "inputs": [
        {
          "internalType": "address",
          "name": "_rentalAgreement",
          "type": "address"
        },
        {
          "internalType": "uint256",
          "name": "_commissionRate",
          "type": "uint256"
        }
      ],
      "stateMutability": "nonpayable",
      "type": "constructor"
    },
    {
      "anonymous": false,
      "inputs": [
        {
          "indexed": true,
          "internalType": "uint256",
          "name": "agreementId",
          "type": "uint256"
        },
        {
          "indexed": true,
          "internalType": "address",
          "name": "tenant",
          "type": "address"
        },
        {
          "indexed": true,
          "internalType": "address",
          "name": "stateAgent",
          "type": "address"
        },
        {
          "indexed": false,
          "internalType": "uint256",
          "name": "commissionAmount",
          "type": "uint256"
        }
      ],
      "name": "CommissionTransferred",
      "type": "event"
    },
    {
      "inputs": [],
      "name": "commissionRate",
      "outputs": [
        {
          "internalType": "uint256",
          "name": "",
          "type": "uint256"
        }
      ],
      "stateMutability": "view",
      "type": "function"
    },
    {
      "inputs": [],
      "name": "rentalAgreement",
      "outputs": [
        {
          "internalType": "contract RentalAgreement",
          "name": "",
          "type": "address"
        }
      ],
      "stateMutability": "view",
      "type": "function"
    },
    {
      "inputs": [
        {
          "internalType": "uint256",
          "name": "_agreementId",
          "type": "uint256"
        },
        {
          "internalType": "address",
          "name": "_tenant",
          "type": "address"
        },
        {
          "internalType": "address",
          "name": "_stateAgent",
          "type": "address"
        },
        {
          "internalType": "address",
          "name": "_landlord",
          "type": "address"
        }
      ],
      "name": "transferCommission",
      "outputs": [],
      "stateMutability": "nonpayable",
      "type": "function"
    }
  ],
  "bytecode": "0x608060405234801561001057600080fd5b50604051610adf380380610adf833981810160405281019061003291906100aa565b816000806101000a81548173ffffffffffffffffffffffffffffffffffffffff021916908373ffffffffffffffffffffffffffffffffffffffff160217905550806001819055505050610150565b60008151905061008f81610122565b92915050565b6000815190506100a481610139565b92915050565b600080604083850312156100bd57600080fd5b60006100cb85828601610080565b92505060206100dc85828601610095565b9150509250929050565b60006100f1826100f8565b9050919050565b600073ffffffffffffffffffffffffffffffffffffffff82169050919050565b6000819050919050565b61012b816100e6565b811461013657600080fd5b50565b61014281610118565b811461014d57600080fd5b50565b6109808061015f6000396000f3fe608060405234801561001057600080fd5b50600436106100415760003560e01c80633d0ffcf6146100465780633e913ae5146100645780635ea1d6f814610080575b600080fd5b61004e61009e565b60405161005b91906106f9565b60405180910390f35b61007e600480360381019061007991906105b8565b6100c2565b005b610088610459565b6040516100959190610774565b60405180910390f35b60008054906101000a900473ffffffffffffffffffffffffffffffffffffffff1681565b60008060008060008060009054906101000a900473ffffffffffffffffffffffffffffffffffffffff1673ffffffffffffffffffffffffffffffffffffffff1663bd14de968a6040518263ffffffff1660e01b81526004016101249190610774565b6101406040518083038186803b15801561013d57600080fd5b505afa158015610151573d6000803e3d6000fd5b505050506040513d601f19601f8201168201806040525081019061017591906104dd565b505097505050955050945094509450600360058111156101be577f4e487b7100000000000000000000000000000000000000000000000000000000600052602160045260246000fd5b8160058111156101f7577f4e487b7100000000000000000000000000000000000000000000000000000000600052602160045260246000fd5b14610237576040517f08c379a000000000000000000000000000000000000000000000000000000000815260040161022e90610734565b60405180910390fd5b8273ffffffffffffffffffffffffffffffffffffffff168773ffffffffffffffffffffffffffffffffffffffff16146102a5576040517f08c379a000000000000000000000000000000000000000000000000000000000815260040161029c90610754565b60405180910390fd5b8373ffffffffffffffffffffffffffffffffffffffff168873ffffffffffffffffffffffffffffffffffffffff1614610313576040517f08c379a000000000000000000000000000000000000000000000000000000000815260040161030a90610714565b60405180910390fd5b8473ffffffffffffffffffffffffffffffffffffffff168673ffffffffffffffffffffffffffffffffffffffff1614610381576040517f08c379a000000000000000000000000000000000000000000000000000000000815260040161037890610714565b60405180910390fd5b60006127106001548461039491906107d1565b61039e91906107a0565b90508373ffffffffffffffffffffffffffffffffffffffff166108fc829081150290604051600060405180830381858888f193505050501580156103e6573d6000803e3d6000fd5b508373ffffffffffffffffffffffffffffffffffffffff168573ffffffffffffffffffffffffffffffffffffffff168b7fb502b78b1581d13f43ea46076847b53df3cd3c7ac4d2c65ab8ce006d29e60341846040516104459190610774565b60405180910390a450505050505050505050565b60015481565b60008135905061046e816108f5565b92915050565b600081519050610483816108f5565b92915050565b6000815190506104988161090c565b92915050565b6000815190506104ad81610923565b92915050565b6000813590506104c281610933565b92915050565b6000815190506104d781610933565b92915050565b6000806000806000806000806000806101408b8d0312156104fd57600080fd5b600061050b8d828e01610474565b9a5050602061051c8d828e01610474565b995050604061052d8d828e01610474565b985050606061053e8d828e016104c8565b975050608061054f8d828e016104c8565b96505060a06105608d828e016104c8565b95505060c06105718d828e016104c8565b94505060e06105828d828e0161049e565b9350506101006105948d828e01610489565b9250506101206105a68d828e01610489565b9150509295989b9194979a5092959850565b600080600080608085870312156105ce57600080fd5b60006105dc878288016104b3565b94505060206105ed8782880161045f565b93505060406105fe8782880161045f565b925050606061060f8782880161045f565b91505092959194509250565b61062481610873565b82525050565b600061063760118361078f565b91507f54656e616e74206d757374206d617463680000000000000000000000000000006000830152602082019050919050565b600061067760188361078f565b91507f41677265656d656e74206d7573742062652061637469766500000000000000006000830152602082019050919050565b60006106b760158361078f565b91507f53746174654167656e74206d757374206d6174636800000000000000000000006000830152602082019050919050565b6106f381610869565b82525050565b600060208201905061070e600083018461061b565b92915050565b6000602082019050818103600083015261072d8161062a565b9050919050565b6000602082019050818103600083015261074d8161066a565b9050919050565b6000602082019050818103600083015261076d816106aa565b9050919050565b600060208201905061078960008301846106ea565b92915050565b600082825260208201905092915050565b60006107ab82610869565b91506107b683610869565b9250826107c6576107c56108c6565b5b828204905092915050565b60006107dc82610869565b91506107e783610869565b9250817fffffffffffffffffffffffffffffffffffffffffffffffffffffffffffffffff04831182151516156108205761081f610897565b5b828202905092915050565b600061083682610849565b9050919050565b60008115159050919050565b600073ffffffffffffffffffffffffffffffffffffffff82169050919050565b6000819050919050565b600061087e82610885565b9050919050565b600061089082610849565b9050919050565b7f4e487b7100000000000000000000000000000000000000000000000000000000600052601160045260246000fd5b7f4e487b7100000000000000000000000000000000000000000000000000000000600052601260045260246000fd5b6108fe8161082b565b811461090957600080fd5b50565b6109158161083d565b811461092057600080fd5b50565b6006811061093057600080fd5b50565b61093c81610869565b811461094757600080fd5b5056fea2646970667358221220dbcea8e660199ea074f075c4418e463d33c2dd9e22c8fb26d5501864d038781b64736f6c63430008000033",
  "linkReferences": {},
  "deployedLinkReferences": {}
}